:100000000A128A11E02F00308A000408840A82074D
:1000100000340034003480343F34183472343134C6
:100020003F34F034FD3475343E344734583463344F
:100030003D34583495341D343C348234C434AE34A9
:100040003A34A834783421343934EF34933480345A
:100050003734A0349234A73435344634563415340A
:1000600034340034003400340034C434FF347F347A
:100070003F348034EF34FF34BE349034E134A9345B
:100080003E34EC3482347634BE348234AD342B3496
:100090003E340E343C34C334BD348734D13413344D
:1000A0003D3441347834D334BB3441345434533444
:1000B0002034533459345334543445344D3400349B
:1000C000673465346E3465347234613474346F343B
:1000D000723400346E3475346C346C3400347034E3
:0800E000683463346E3400340F
:1009BA002130F1007630F000F00BE12CF10BE12C44
:1009CA00000008002130F1007630F000F00BEB2C2B
:1009DA00F10BEB2C0000080045344C344534433409
:1009EA00543452344F344E3449344334533400343B
:1009FA00013400348312031306170A128A11DD2404
:100A0A000A128A118312031306130A128A11DD24A9
:100A1A000A128A1108007E088A007F0882000A12D8
:100A2A008A1110250A128A118000840A04087D0698
:100A3A0003190034FF0A0319FE0A142D8312031343
:100A4A00061306120608F03986000A128A11FF24D4
:100A5A000A128A11831203130608F0390138860034
:100A6A000A128A11FF240A128A110A128A11E72429
:100A7A000A128A110800F5008312031306130612DC
:100A8A0075087207F300F401F40D0430FF00740DC9
:100A9A00F40CF30CFF0B4C2D730886000A128A1112
:100AAA00FF240A128A11720875070F398312031379
:100ABA0086000A128A11FF240A128A110800F70016
:100ACA00F601A22D7608770784000A128A110320FC
:100ADA000A128A11F20004300310F20CFF3E031DC1
:100AEA00712D72080F39F3007308F500760877073D
:100AFA0084000A128A1103200A128A110F39F2009D
:100B0A007208F4008312031306160608F0397504F6
:100B1A0086000A128A11FF240A128A118312031309
:100B2A000608F039740486000A128A11FF240A1290
:100B3A008A110130F2007208F607760877078400F6
:100B4A000A128A1103200A128A11003A031DAE2DD5
:100B5A00AF2D672D080083160313061283120313A1
:100B6A008612033086000A128A11FF240A128A1199
:100B7A000A128A11E7240A128A1102308312031315
:100B8A0086000A128A11FF240A128A110A128A118D
:100B9A00E7240A128A1102308312031386000A120A
:100BAA008A11FF240A128A110A128A11E7240A12E8
:100BBA008A1108308312031386000A128A11FF244D
:100BCA000A128A110A128A11E7240A128A11831256
:100BDA00031386010A128A11FF240A128A110C30A1
:100BEA008312031386000A128A11FF240A128A1139
:100BFA000A128A11E7240A128A1183120313860140
:100C0A000A128A11FF240A128A1106308312031368
:100C1A0086000A128A11FF240A128A110A128A11FC
:100C2A00E7240A128A110800831203130711831694
:100C3A0003138601831203138601C230831603133A
:100C4A009F00C130831203139F00FF3083160313E2
:100C5A008500C030880083120313880183160313AA
:100C6A0087010A128A11B0250A128A110A128A11F8
:100C7A0023250A128A110A128A1123250A128A11B5
:100C8A000330F8007808F20080300A128A114025F1
:100C9A000A128A114D300A128A1164250A128A111F
:100CAA00831203130712081188110A128A112325C5
:100CBA000A128A110330F8007808F20080300A120A
:100CCA008A1140250A128A114D300A128A116425A6
:100CDA000A128A110330FA008A30F9005530F800F6
:100CEA00F80B752EF90B752EFA0B752E7C2E8312C6
:100CFA0003131F08C73908389F002130F800F80B82
:100D0A00842E831203131F151F198C2E8D2E892EE4
:100D1A001E08B900831603131E0883120313B800B2
:100D2A00A630F800F80B972E0000C7308312031381
:100D3A009F052130F800F80BA02E831203131F150C
:100D4A001F19A82EA92EA52E1E08B7008316031355
:100D5A001E0883120313B600A630F800F80BB32E50
:100D6A000000831203133908803AFF0083307F02A0
:100D7A00031DC12E983038020318C42EC52E432FE6
:100D8A008312031334083504031DCC2ECD2EE62E10
:100D9A008811081107120730FA005830F900593043
:100DAA00F800F80BD62EF90BD62EFA0BD62EDD2E1E
:100DBA008312031308150130B4000030B500B201E4
:100DCA00B3012D08803AFF0080307F02031DEF2E09
:100DDA0001302C02031CF22EF32E252F831203134B
:100DEA00AC01AD01BA01BB018312031307150D3023
:100DFA00F900FB30F800F80B002FF90B002F052F34
:100E0A008312031307117530F900E130F800F80B6B
:100E1A000C2FF90B0C2F013083120313BA07031896
:100E2A00BB0A0030BB073B08803AFF0080307F02D4
:100E3A00031D212F32303A02031C242F252FF92EAD
:100E4A00F201C0300A128A1140250A128A1167304B
:100E5A000A128A1164250A128A114030FA006A308D
:100E6A00F9009730F800F80B382FF90B382FFA0BE6
:100E7A00382F3F2F831203138715CF2F83120313A3
:100E8A0008113708803AFF0083307F02031D4F2F75
:100E9A00983036020318522F532FC22F831203138E
:100EAA0032083304031D5A2F5B2FA72F881108110C
:100EBA0007160730FA005830F9005930F800F80BD5
:100ECA00642FF90B642FFA0B642F6B2F8312031311
:100EDA0088150130B2000030B300B401B501BC017D
:100EEA00BD018312031307150730F9007D30F8009E
:100EFA00F80B7D2FF90B7D2F8312031307117C301A
:100F0A00F9005F30F800F80B882FF90B882F0130B1
:100F1A0083120313BC070318BD0A0030BD073D083E
:100F2A00803AFF0080307F02031D9D2F32303C0241
:100F3A00031CA02FA12F762F013083120313AC00BC
:100F4A000030AD00F201C0300A128A1140250A129F
:100F5A008A1158300A128A1164250A128A114030FD
:100F6A00FA006A30F9009730F800F80BBA2FF90B3B
:100F7A00BA2FFA0BBA2FC12FCF2FF201C0300A12A3
:100F8A008A1140250A128A1162300A128A116425CE
:100F9A000A128A110330FA008A30F9005530F80033
:100FAA00F80BD52FF90BD52FFA0BD52FDC2F5A2E8C
:100FBA000A128A11002883132E30FD000430FE0025
:100FCA00F130FF00203084000A128A1114250A1217
:100FDA008A11AE01AF01B001B101B201B301B4018E
:100FEA00B501B601B701B801B901FB01FC018301E2
:060FFA000A128A11192EF3
:02400E003A3F37
:00000001FF
