:100000000A128A11E22F00308A000408840A82074B
:1000100000340034003480343F34183472343134C6
:100020003F34F034FD3475343E344734583463344F
:100030003D34583495341D343C348234C434AE34A9
:100040003A34A834783421343934EF34933480345A
:100050003734A0349234A73435344634563415340A
:1000600034340034003400340034C434FF347F347A
:100070003F348034EF34FF34BE349034E134A9345B
:100080003E34EC3482347634BE348234AD342B3496
:100090003E340E343C34C334BD348734D13413344D
:1000A0003D3441347834D334BB3441345434533444
:1000B0002034533459345334543445344D3400349B
:1000C0006E3475346C346C34203420342034203455
:1000D000203400347034683463346E342034203477
:1000E0002034203420340034673465346E34653471
:0C00F0007234613474346F3472340034A4
:1009E4002130F1007630F000F00BF62CF10BF62CF0
:1009F400000008002130F1007630F000F00B002DEB
:100A0400F10B002D0000080045344C3445344334C8
:100A1400543452344F344E34493443345334003410
:100A24008312031306170A128A11F2240A128A1176
:100A34008312031306130A128A11F2240A128A116A
:100A440008007E088A007F0882000A128A11232582
:100A54000A128A118000840A04087D0603190034EE
:100A6400FF0A0319FE0A272D831203130613061225
:100A74000608F03986000A128A1112250A128A1110
:100A8400831203130608F039013886000A128A110A
:100A940012250A128A110A128A11FC240A128A11D6
:100AA4000800F50083120313061306127508720773
:100AB400F300F401F40D0430FF00740DF40CF30C96
:100AC400FF0B5F2D730886000A128A1112250A1281
:100AD4008A11720875070F398312031386000A12EC
:100AE4008A1112250A128A110800F700F601B52DA1
:100AF4007608770784000A128A1103200A128A11E1
:100B0400F20004300310F20CFF3E031D842D720822
:100B14000F39F3007308F5007608770784000A128A
:100B24008A1103200A128A110F39F2007208F400A4
:100B34008312031306160608F039750486000A1298
:100B44008A1112250A128A11831203130608F03936
:100B5400740486000A128A1112250A128A110130BD
:100B6400F2007208F6077608770784000A128A11E1
:100B740003200A128A11003A031DC12DC22D7A2DB9
:100B8400080083160313061283120313861203301C
:100B940086000A128A1112250A128A110A128A116F
:100BA400FC240A128A1102308312031386000A12EB
:100BB4008A1112250A128A110A128A11FC240A12B5
:100BC4008A1102308312031386000A128A11122535
:100BD4000A128A110A128A11FC240A128A11083094
:100BE4008312031386000A128A1112250A128A112B
:100BF4000A128A11FC240A128A1183120313860131
:100C04000A128A1112250A128A110C308312031354
:100C140086000A128A1112250A128A110A128A11EE
:100C2400FC240A128A118312031386010A128A1100
:100C340012250A128A1106308312031386000A123F
:100C44008A1112250A128A110A128A11FC240A1224
:100C54008A110800831203130711831603138601F4
:100C6400831203138601C230831603139F00C1301D
:100C7400831203139F00FF30831603138500C030D3
:100C840088008312031388018316031387010A1251
:100C94008A11C3250A128A110A128A1136250A12E8
:100CA4008A110A128A1136250A128A110330F800B1
:100CB4007808F20080300A128A1153250A128A1128
:100CC4004D300A128A1177250A128A110330FA006C
:100CD4008A30F9005530F800F80B6E2EF90B6E2EA1
:100CE400FA0B6E2E752EC730831203139F05213025
:100CF400F800F80B7B2E831203131F151F19832E84
:100D0400842E802E1E08B500831603131E0883123A
:100D14000313B400A630F800F80B8E2E00008312E3
:100D240003131F08C73908389F002130F800F80B57
:100D3400992E831203131F151F19A12EA22E9E2E66
:100D44001E08B300831603131E0883120313B20094
:100D5400A630F800F80BAC2E0000831203133508FC
:100D6400803AFF0083307F02031DBA2E983034028C
:100D74000318BD2EBE2E7C2F831203130815881171
:100D8400F201C0300A128A1153250A128A11623004
:100D94000A128A1177250A128A1183120313310861
:100DA400803AFF0080307F02031DDA2E01303002CA
:100DB400031CDD2EDE2E112F83120313B001B101AB
:100DC4000715B601B7018312031307150D30F90097
:100DD400FB30F800F80BEC2EF90BEC2EF12E8312FD
:100DE400031307117530F900E130F800F80BF82E01
:100DF400F90BF82E013083120313B6070318B70A50
:100E04000030B7073708803AFF0080307F02031DA7
:100E14000D2F32303602031C102F112FE52E4030D7
:100E2400FA006A30F9009730F800F80B172FF90B25
:100E3400172FFA0B172F1E2F8312031387151F0862
:100E4400C73908389F002130F800F80B272F831288
:100E540003131F151F192F2F302F2C2F1E08B3001B
:100E6400831603131E0883120313B200A630F8007E
:100E7400F80B3A2F0000831203133308803AFF0063
:100E840083307F02031D482F98303202031C4B2FFE
:100E94004C2F682E83120313B801B9018312031374
:100EA40007150730F9007D30F800F80B572FF90BC0
:100EB400572F8312031307117C30F9005F30F800B9
:100EC400F80B622FF90B622F013083120313B8075A
:100ED4000318B90A0030B9073908803AFF00803096
:100EE4007F02031D772F32303802031C7A2F7B2FA9
:100EF400502F682E83120313081188113308803A87
:100F0400FF0083307F02031D892F983032020318BB
:100F14008C2F8D2FD12F83120313BA01BB0183129F
:100F2400031307150730F9007D30F800F80B982FEC
:100F3400F90B982F8312031307117C30F9005F30EB
:100F4400F800F80BA32FF90BA32F0130831203131E
:100F5400BA070318BB0A0030BB073B08803AFF00FE
:100F640080307F02031DB82F32303A02031CBB2F9E
:100F7400BC2F912F013083120313B0000030B10055
:100F84008815F201C0300A128A1153250A128A11F7
:100F94006C300A128A1177250A128A11682EF2011E
:100FA400C0300A128A1153250A128A1158300A12C3
:100FB4008A1177250A128A11682E0A128A110028CA
:100FC40083132C30FD000530FE000630FF00203076
:100FD40084000A128A1127250A128A11AC01AD0174
:100FE400AE01AF01B001B101B201B301B401B50169
:0C0FF400FB01FC0183010A128A112C2E63
:02400E003A3F37
:00000001FF
